:100000000C942A000C9447000C9447000C94470071
:100010000C9447000C9447000C9447000C94470044
:100020000C9447000C94AF000C9447000C944700CC
:100030000C9447000C9447000C9447000C94470024
:100040000C9447000C9447000C9447000C94470014
:100050000C94470011241FBECFE5D4E0DEBFCDBF16
:1000600010E0A0E6B0E0ECE7F7E002C005900D92EA
:10007000A036B107D9F710E0A0E6B0E001C01D92AC
:10008000AE36B107E1F70E9449000C94BC030C9412
:10009000000088E087BB89E683BF81E089BF60916B
:1000A000600070916100809162009091630020E097
:1000B00030E048EC52E40E944C0220E030E04FE790
:1000C00053E40E9435030E94B4026CBF78940F2E53
:1000D000F0E0CF2EF0E0DF2EF0E0EF2EF0E0FF2E8C
:1000E000F02D8FEF91EEA4E081509040A040E1F719
:1000F00000C000006091600070916100809162001A
:100100009091630020E030E040E251E40E94E80179
:10011000262F372FF82FE92F462F572F682F792FAB
:10012000409360005093610060936200709363009D
:10013000822F932FAF2FBE2FBC01CD0120E030E0E6
:1001400048EC52E40E94310318165CF6C09260003D
:10015000D0926100E0926200F0926300C2CF1F92E1
:100160000F920FB60F9211242F933F934F935F93EB
:100170006F937F938F939F93AF93BF93EF93FF936F
:1001800060916000709161008091620090916300C5
:1001900020E030E048EC52E40E944C0220E030E0E5
:1001A0004FE753E40E9435030E94B4026CBFFF91F5
:1001B000EF91BF91AF919F918F917F916F915F91DF
:1001C0004F913F912F910F900FBE0F901F90189558
:1001D000C29A0000C2980895CF93662311F0C09A86
:1001E00001C0C098C198BC9ABD9ABE9ABF9AC798E0
:1001F000C698C598C49888230CF4C79AC82F86FD62
:10020000C69AC5FDC59AC4FDC49A0E94E800C79865
:10021000C698C598C498C3FDC79AC2FDC69AC1FDC9
:10022000C59AC0FDC49A0E94E800C49AC59AC69AAD
:10023000C79ACF910895882311F0C09A01C0C09841
:10024000C19ABC98BD98BE98BF98C29A0000B49954
:1002500002C080E001C080E1B5998062B6998064F7
:10026000B7998068C2980000C29A0000B499816072
:10027000B5998260B6998460B7998860C2980895EC
:1002800080E00E941B018823DCF300C000C080E0F6
:100290000E941B010895CF93C82F0E9440018C2F0C
:1002A00060E00E94EC00CF910895CF93C82F0E9488
:1002B00040018C2F61E00E94EC00CF9108956623ED
:1002C00021F480580E944B01089580540E944B01F4
:1002D00008950E94400190E0089581E00E944B0142
:1002E000089582E00E944B010895CF93C82F0E9489
:1002F0004001CA3049F4803410F480E401C080E049
:1003000080580E944B0104C08C2F61E00E94EC00D9
:10031000CF910895CF93DF93EC018881882331F04A
:1003200021960E94750189918823D9F7DF91CF9199
:100330000895CF93DF93EC01FC018491882341F071
:1003400021960E947501FE01219684918823C9F7A8
:10035000DF91CF910895CF93C82FB89AB99ABA9ADE
:10036000BC9ABD9ABE9ABF9A8FE99FE00197F1F7B8
:1003700000C00000C59AC49A0E94E80081EE94E093
:100380000197F1F700C000000E94E80095E19A95FE
:10039000F1F700000E94E80085E18A95F1F700007E
:1003A000C4980E94E80095E19A95F1F7000088E270
:1003B0000E944B0188E00E944B010E946D0186E083
:1003C0000E944B018C2F0E944B01CF9108955058F1
:1003D000BB27AA270ED00BC1FCD030F001D120F0F2
:1003E00031F49F3F11F41EF4F1C00EF4E095E7FBE9
:1003F000E7C0E92F0DD180F3BA17620773078407AE
:10040000950718F071F49EF525C10EF4E0950B2EBA
:10041000BA2FA02D0B01B90190010C01CA01A00156
:100420001124FF27591B99F0593F50F4503E68F1B1
:100430001A16F040A22F232F342F4427585FF3CFF2
:10044000469537952795A795F0405395C9F77EF4C3
:100450001F16BA0B620B730B840BBAF09150A1F00C
:10046000FF0FBB1F661F771F881FC2F70EC0BA0F92
:10047000621F731F841F48F4879577956795B7951A
:10048000F7959E3F08F0B3CF9395880F08F0992712
:10049000EE0F9795879508950CD0A9C0A1D040F094
:1004A00098D030F021F45F3F19F08AC05111D3C0C9
:1004B0008DC0AED098F39923C9F35523B1F3951BA2
:1004C000550BBB27AA2762177307840738F09F5F75
:1004D0005F4F220F331F441FAA1FA9F333D00E2EE4
:1004E0003AF0E0E830D091505040E695001CCAF751
:1004F00029D0FE2F27D0660F771F881FBB1F261716
:1005000037074807AB07B0E809F0BB0B802DBF01E8
:10051000FF2793585F4F2AF09E3F510568F050C067
:100520009AC05F3FECF3983EDCF38695779567952C
:10053000B795F7959F5FC9F7880F911D9695879599
:1005400097F90895E1E0660F771F881FBB1F6217B8
:1005500073078407BA0720F0621B730B840BBA0B76
:10056000EE1F88F7E09508955BD088F09F5790F0D4
:10057000B92F9927B751A0F0D1F0660F771F881FC8
:10058000991F1AF0BA95C9F712C0B13081F062D044
:10059000B1E008955FC0672F782F8827B85F39F0E2
:1005A000B93FCCF3869577956795B395D9F73EF427
:1005B00090958095709561957F4F8F4F9F4F0895CF
:1005C00097F99F6780E870E060E008959FEF80EC06
:1005D000089500240A9416161706180609060895A9
:1005E00000240A9412161306140605060895092E0F
:1005F0000394000C11F4882352F0BB0F40F4BF2B7E
:1006000011F460FF04C06F5F7F4F8F4F9F4F0895BD
:1006100057FD9058440F551F59F05F3F71F04795B3
:10062000880F97FB991F61F09F3F79F08795089598
:10063000121613061406551FF2CF4695F1DF08C0B7
:10064000161617061806991FF1CF869571056105D4
:1006500008940895E894BB2766277727CB0197F97C
:10066000089566D008F48FEF08950BD0C0CFB1DFA6
:1006700028F0B6DF18F0952309F0A2CFA7CF1124F8
:10068000EACFC6DFA0F3959FD1F3950F50E0551F39
:10069000629FF001729FBB27F00DB11D639FAA27D7
:1006A000F00DB11DAA1F649F6627B00DA11D661F26
:1006B000829F2227B00DA11D621F739FB00DA11D47
:1006C000621F839FA00D611D221F749F3327A00D01
:1006D000611D231F849F600D211D822F762F6A2F9D
:1006E00011249F5750408AF0E1F088234AF0EE0F22
:1006F000FF1FBB1F661F771F881F91505040A9F72F
:100700009E3F510570F05CCFA6CF5F3FECF3983E63
:10071000DCF3869577956795B795F795E7959F5F95
:10072000C1F7FE2B880F911D9695879597F908952F
:10073000990F0008550FAA0BE0E8FEEF16161706F2
:10074000E807F907C0F012161306E407F50798F05A
:10075000621B730B840B950B39F40A2661F0232B73
:10076000242B252B21F408950A2609F4A140A695EF
:0C0770008FEF811D811D0895F894FFCFCC
:00000001FF
