:100000000C942A000C9447000C9447000C94470071
:100010000C9447000C9447000C9447000C94470044
:100020000C9447000C9447000C9447000C94470034
:100030000C9447000C9447000C9447000C94470024
:100040000C9447000C9447000C9447000C94470014
:100050000C94470011241FBECFE5D4E0DEBFCDBF16
:1000600010E0A0E6B0E0E2EDF0E002C005900D92F5
:10007000A036B107D9F710E0A0E6B0E001C01D92AC
:10008000A036B107E1F70E9449000C9467000C9478
:100090000000A09A95B381E0892785BBA29A899830
:1000A000919A80E090E020E030E071E064E041E08F
:1000B00050E001C0C9018099FDCF0097E1F785B3F9
:1000C000872785BB85B3862785BBCA01F4CFF89403
:0200D000FFCF60
:00000001FF
