:100000000C942A000C9447000C9447000C94470071
:100010000C9447000C9447000C9447000C94470044
:100020000C9447000C9447000C9447000C94470034
:100030000C9447000C9447000C9447000C94470024
:100040000C9447000C9447000C9447000C94560005
:100050000C94470011241FBECFE5D4E0DEBFCDBF16
:1000600010E0A0E6B0E0E4EFF0E002C005900D92F1
:10007000A036B107D9F710E0A0E6B0E001C01D92AC
:10008000A236B107E1F70E9449000C9478000C9465
:100090000000A09A83B7886083BF89E08CBF82E0AC
:1000A00089BF789483B7856083BFFFCF1F920F927B
:1000B0000FB60F9211248F939F93809160009091BF
:1000C00061000196909361008093600085369105F0
:1000D00044F0109261001092600095B381E089278E
:1000E00085BB9F918F910F900FBE0F901F90189519
:0400F000F894FFCFB2
:00000001FF
