:100000000C942A000C9447000C9447000C94470071
:100010000C9447000C9447000C9447000C94470044
:100020000C9447000C9447000C9447000C94470034
:100030000C9447000C9447000C9447000C94470024
:100040000C9447000C9447000C9447000C94470014
:100050000C94470011241FBECFE5D4E0DEBFCDBF16
:1000600010E0A0E6B0E0E6EDF2E002C005900D92EF
:10007000AC36B107D9F710E0ACE6B0E001C01D9294
:10008000AC36B107E1F70E9448010C9469010C9469
:100090000000C29A0000C2980895CF93662311F021
:1000A000C09A01C0C098C198BC9ABD9ABE9ABF9A26
:1000B000C798C698C598C49888230CF4C79AC82FC7
:1000C00086FDC69AC5FDC59AC4FDC49A0E94490022
:1000D000C798C698C598C498C3FDC79AC2FDC69A6A
:1000E000C1FDC59AC0FDC49A0E944900C49AC59A30
:1000F000C69AC79ACF910895882311F0C09A01C07B
:10010000C098C19ABC98BD98BE98BF98C29A00008A
:10011000B49902C080E001C080E1B5998062B699CF
:100120008064B7998068C2980000C29A0000B499B0
:100130008160B5998260B6998460B7998860C298E9
:10014000089580E00E947C008823DCF300C000C09A
:1001500080E00E947C000895CF93C82F0E94A100E8
:100160008C2F60E00E944D00CF910895CF93C82F4F
:100170000E94A1008C2F61E00E944D00CF91089554
:10018000662321F480580E94AC00089580540E9498
:10019000AC0008950E94A10090E0089581E00E94C3
:1001A000AC00089582E00E94AC000895CF93C82F60
:1001B0000E94A100CA3049F4803410F480E401C0E8
:1001C00080E080580E94AC0004C08C2F61E00E9447
:1001D0004D00CF910895CF93DF93EC018881882360
:1001E00031F021960E94D60089918823D9F7DF91BA
:1001F000CF910895CF93DF93EC01FC018491882384
:1002000041F021960E94D600FE0121968491882318
:10021000C9F7DF91CF910895CF93C82FB89AB99AB3
:10022000BA9ABC9ABD9ABE9ABF9A8FE99FE001978D
:10023000F1F700C00000C59AC49A0E94490081EEFF
:1002400094E00197F1F700C000000E94490095E199
:100250009A95F1F700000E94490085E18A95F1F72F
:100260000000C4980E94490095E19A95F1F70000BA
:1002700088E20E94AC0088E00E94AC000E94CE00A0
:1002800086E00E94AC008C2F0E94AC00CF910895B4
:100290008CE00E940C01C0E6D0E006E610E00E946F
:1002A000CE0080E060E00E94C000CE010E94EB0022
:1002B00086E060E00E94C000C8010E94EB008FE36E
:1002C0009DE0A3E081509040A040E1F700C0000015
:0602D000E6CFF894FFCF19
:0C02D60068656C6C6F00776F726C6400E0
:00000001FF
