:100000000C942A000C9447000C9447000C94470071
:100010000C9447000C9447000C9447000C94470044
:100020000C9447000C9447000C9447000C94470034
:100030000C9447000C9447000C9447000C94470024
:100040000C9447000C9447000C9447000C94470014
:100050000C94470011241FBECFE5D4E0DEBFCDBF16
:1000600010E0A0E6B0E0EEE6F1E002C005900D92EF
:10007000A036B107D9F710E0A0E6B0E001C01D92AC
:10008000A636B107E1F70E94A3000C94B5000C94CA
:100090000000CF93DF930F92CDB7DEB7DC01698309
:1000A000B901898190E09C0102C0359527954A9558
:1000B000E2F720FD1DC09D01220F331FF901E05A18
:1000C000FF4F808191810196918380832C593F4F0E
:1000D000F901118210826817790764F5FD01EE0FAE
:1000E000FF1FE05AFF4F1182108280E090E027C08E
:1000F0009D01220F331FF901EC59FF4F808191813F
:10010000019691838083205A3F4FF901118210821A
:100110006817790794F4AA0FBB1FFD01EE59FF4F32
:1001200011821082AC59BF4F11961C921E9280E032
:1001300090E005C080E090E002C080E090E00F9089
:10014000DF91CF9108958898A09A909AC1E060B30A
:1001500080E090E040E024EF31E00E944900009709
:0E016000B1F385B38C2785BBF2CFF894FFCFA7
:00000001FF
