:100000000C942A000C9447000C9447000C94470071
:100010000C9447000C9447000C9447000C94470044
:100020000C9447000C9447000C9447000C94470034
:100030000C9447000C9447000C9447000C94470024
:100040000C9447000C9447000C9447000C94470014
:100050000C94470011241FBECFE5D4E0DEBFCDBF16
:1000600010E0A0E6B0E0E8E0F1E002C005900D92FB
:10007000A036B107D9F710E0A0E6B0E001C01D92AC
:10008000A036B107E1F70E9449000C9482000C945D
:100090000000A09A95B381E0892785BBA29A889831
:1000A000909A80E090E020E030E060E070E0B1E025
:1000B000A4E040E050E0E1E0F0E008C0CA0106C082
:1000C000CA019A0103C0CA019A01BA01809913C0FA
:1000D0002F5F3F4F81E0253F380784F3611571059D
:1000E00079F785B38B2785BB85B38A2785BBCA0182
:1000F0009A01BF01EBCF019621E0853F92071CF7E3
:080100009A01E4CFF894FFCF4F
:00000001FF
