:100000000C942A000C9447000C9447000C94470071
:100010000C9447000C9447000C9447000C94470044
:100020000C9447000C9447000C9447000C94470034
:100030000C9447000C9447000C9447000C94470024
:100040000C9447000C9447000C9447000C94470014
:100050000C94470011241FBECFE5D4E0DEBFCDBF16
:1000600010E0A0E6B0E0E2E8F3E002C005900D92F7
:10007000A036B107D9F710E0A0E6B0E001C01D92AC
:10008000A036B107E1F70E9459000C94BF010C940F
:10009000000080E487B987E886B9089597B1877032
:1000A000987F982B97B9369A3699FECF84B195B13F
:1000B0000895CF93DF93CDB7DEB72A970FB6F894A4
:1000C000DEBF0FBECDBF8CE00E943E010E94490002
:1000D00080E00E944E00BE016F5F7F4F4AE050E01B
:1000E0000E947A0180E060E00E94F200CE01019659
:1000F0000E941D01EDCFC29A0000C2980895CF93CF
:10010000662311F0C09A01C0C098C198BC9ABD9AEC
:10011000BE9ABF9AC798C698C598C49888230CF40D
:10012000C79AC82F86FDC69AC5FDC59AC4FDC49A54
:100130000E947B00C798C698C598C498C3FDC79A0B
:10014000C2FDC69AC1FDC59AC0FDC49A0E947B003B
:10015000C49AC59AC69AC79ACF910895882311F078
:10016000C09A01C0C098C19ABC98BD98BE98BF986B
:10017000C29A0000B49902C080E001C080E1B59944
:100180008062B6998064B7998068C2980000C29A6C
:100190000000B4998160B5998260B6998460B7997E
:1001A0008860C298089580E00E94AE008823DCF346
:1001B00000C000C080E00E94AE000895CF93C82F19
:1001C0000E94D3008C2F60E00E947F00CF910895A1
:1001D000CF93C82F0E94D3008C2F61E00E947F0034
:1001E000CF910895662321F480580E94DE0008957F
:1001F00080540E94DE0008950E94D30090E008958C
:1002000081E00E94DE00089582E00E94DE000895F1
:10021000CF93C82F0E94D300CA3049F4803410F421
:1002200080E401C080E080580E94DE0004C08C2F72
:1002300061E00E947F00CF910895CF93DF93EC019E
:100240008881882331F021960E94080189918823B2
:10025000D9F7DF91CF910895CF93DF93EC01FC01A3
:100260008491882341F021960E940801FE01219685
:1002700084918823C9F7DF91CF910895CF93C82F38
:10028000B89AB99ABA9ABC9ABD9ABE9ABF9A8FE99F
:100290009FE00197F1F700C00000C59AC49A0E9440
:1002A0007B0081EE94E00197F1F700C000000E940E
:1002B0007B0095E19A95F1F700000E947B0085E1B3
:1002C0008A95F1F70000C4980E947B0095E19A9509
:1002D000F1F7000088E20E94DE0088E00E94DE0064
:1002E0000E94000186E00E94DE008C2F0E94DE004A
:1002F000CF910895FB019F01E8944230C4F045324C
:10030000B4F44A3029F497FB1EF4909581959F4FE1
:10031000642F77270E94AB01805D8A330CF0895DE2
:100320008193CB010097A1F716F45DE251931082FF
:10033000C9010C949B01DC01FC01672F71917723AB
:10034000E1F7329704C07C916D9370836291AE1790
:10035000BF07C8F30895AA1BBB1B51E107C0AA1F22
:10036000BB1FA617B70710F0A61BB70B881F991F56
:100370005A95A9F780959095BC01CD010895F89400
:02038000FFCFAD
:00000001FF
