:100000000C942A000C9447000C9447000C94470071
:100010000C9447000C9447000C9447000C94470044
:100020000C9447000C9447000C9447000C94470034
:100030000C9447000C9447000C9447000C94470024
:100040000C9447000C9447000C9447000C94470014
:100050000C94470011241FBECFE5D4E0DEBFCDBF16
:1000600010E0A0E6B0E0EAECF0E002C005900D92EE
:10007000A036B107D9F710E0A0E6B0E001C01D92AC
:10008000A036B107E1F70E9449000C9463000C947C
:100090000000A09A8898909A91E085B3892785BB43
:1000A000809907C0E3ECF9E03197F1F700C0000058
:1000B000F4CF2FE33DE043E0215030404040E1F7F2
:0A00C00000C00000EACFF894FFCF63
:00000001FF
